{
  "contractName": "jaAssure",
  "abi": [
    {
      "inputs": [
        {
          "internalType": "uint256",
          "name": "",
          "type": "uint256"
        }
      ],
      "name": "objectOwnerAddresses",
      "outputs": [
        {
          "internalType": "address",
          "name": "",
          "type": "address"
        }
      ],
      "stateMutability": "view",
      "type": "function"
    },
    {
      "inputs": [
        {
          "internalType": "address",
          "name": "",
          "type": "address"
        },
        {
          "internalType": "uint256",
          "name": "",
          "type": "uint256"
        }
      ],
      "name": "objectOwners",
      "outputs": [
        {
          "internalType": "uint256",
          "name": "objectId",
          "type": "uint256"
        },
        {
          "internalType": "string",
          "name": "objectData",
          "type": "string"
        }
      ],
      "stateMutability": "view",
      "type": "function"
    },
    {
      "inputs": [],
      "name": "totalCount",
      "outputs": [
        {
          "internalType": "uint256",
          "name": "",
          "type": "uint256"
        }
      ],
      "stateMutability": "view",
      "type": "function"
    },
    {
      "inputs": [],
      "name": "cryptomarket",
      "outputs": [],
      "stateMutability": "nonpayable",
      "type": "function"
    },
    {
      "inputs": [],
      "name": "checkUserRegistration",
      "outputs": [
        {
          "internalType": "bool",
          "name": "",
          "type": "bool"
        }
      ],
      "stateMutability": "view",
      "type": "function"
    },
    {
      "inputs": [],
      "name": "registerUser",
      "outputs": [],
      "stateMutability": "nonpayable",
      "type": "function"
    },
    {
      "inputs": [
        {
          "internalType": "uint256",
          "name": "_objectId",
          "type": "uint256"
        },
        {
          "internalType": "string",
          "name": "_objectData",
          "type": "string"
        }
      ],
      "name": "registerObject",
      "outputs": [],
      "stateMutability": "nonpayable",
      "type": "function"
    },
    {
      "inputs": [],
      "name": "getObjectData",
      "outputs": [
        {
          "components": [
            {
              "internalType": "uint256",
              "name": "objectId",
              "type": "uint256"
            },
            {
              "internalType": "string",
              "name": "objectData",
              "type": "string"
            }
          ],
          "internalType": "struct jaAssure.Object[]",
          "name": "",
          "type": "tuple[]"
        }
      ],
      "stateMutability": "view",
      "type": "function"
    },
    {
      "inputs": [
        {
          "internalType": "address",
          "name": "_newOwner",
          "type": "address"
        },
        {
          "internalType": "uint256",
          "name": "_objectId",
          "type": "uint256"
        }
      ],
      "name": "transferObjectOwnership",
      "outputs": [],
      "stateMutability": "nonpayable",
      "type": "function"
    },
    {
      "inputs": [
        {
          "internalType": "uint256",
          "name": "_objectId",
          "type": "uint256"
        }
      ],
      "name": "getObjectOwner",
      "outputs": [
        {
          "internalType": "address",
          "name": "",
          "type": "address"
        }
      ],
      "stateMutability": "view",
      "type": "function"
    },
    {
      "inputs": [],
      "name": "getTotalCount",
      "outputs": [
        {
          "internalType": "uint256",
          "name": "",
          "type": "uint256"
        }
      ],
      "stateMutability": "view",
      "type": "function"
    }
  ],
  "bytecode": "0x608060405234801561001057600080fd5b5061185d806100206000396000f3fe608060405234801561001057600080fd5b50600436106100a95760003560e01c80634e553d74116100715780634e553d741461012c57806356d42bb31461015d5780636252194d1461017b57806363411057146101995780638d2b7650146101b7578063a97d7db9146101d3576100a9565b806301315031146100ae5780631e580dcb146100b8578063203486ad146100d457806334eafb11146101045780634d3820eb14610122575b600080fd5b6100b6610203565b005b6100d260048036038101906100cd9190610e1b565b610249565b005b6100ee60048036038101906100e99190610e77565b610344565b6040516100fb9190610ee5565b60405180910390f35b61010c610381565b6040516101199190610f0f565b60405180910390f35b61012a610387565b005b61014660048036038101906101419190610f56565b610499565b604051610154929190611015565b60405180910390f35b610165610552565b6040516101729190610f0f565b60405180910390f35b61018361055b565b6040516101909190611060565b60405180910390f35b6101a16105af565b6040516101ae91906111d3565b60405180910390f35b6101d160048036038101906101cc9190610f56565b61083f565b005b6101ed60048036038101906101e89190610e77565b610c3e565b6040516101fa9190610ee5565b60405180910390f35b33600460000160006101000a81548173ffffffffffffffffffffffffffffffffffffffff021916908373ffffffffffffffffffffffffffffffffffffffff160217905550565b6000604051806040016040528084815260200183815250905080600160003373ffffffffffffffffffffffffffffffffffffffff1673ffffffffffffffffffffffffffffffffffffffff16815260200190815260200160002060008581526020019081526020016000206000820151816000015560208201518160010190816102d29190611401565b50905050336002600085815260200190815260200160002060006101000a81548173ffffffffffffffffffffffffffffffffffffffff021916908373ffffffffffffffffffffffffffffffffffffffff16021790555060008081548092919061033a90611502565b9190505550505050565b60006002600083815260200190815260200160002060009054906101000a900473ffffffffffffffffffffffffffffffffffffffff169050919050565b60005481565b600360003373ffffffffffffffffffffffffffffffffffffffff1673ffffffffffffffffffffffffffffffffffffffff16815260200190815260200160002060009054906101000a900460ff16610497576001600360003373ffffffffffffffffffffffffffffffffffffffff1673ffffffffffffffffffffffffffffffffffffffff16815260200190815260200160002060006101000a81548160ff0219169083151502179055506004600101339080600181540180825580915050600190039060005260206000200160009091909190916101000a81548173ffffffffffffffffffffffffffffffffffffffff021916908373ffffffffffffffffffffffffffffffffffffffff1602179055505b565b6001602052816000526040600020602052806000526040600020600091509150508060000154908060010180546104cf90611224565b80601f01602080910402602001604051908101604052809291908181526020018280546104fb90611224565b80156105485780601f1061051d57610100808354040283529160200191610548565b820191906000526020600020905b81548152906001019060200180831161052b57829003601f168201915b5050505050905082565b60008054905090565b6000600360003373ffffffffffffffffffffffffffffffffffffffff1673ffffffffffffffffffffffffffffffffffffffff16815260200190815260200160002060009054906101000a900460ff16905090565b60606000805b6103e881101561063c576000600160003373ffffffffffffffffffffffffffffffffffffffff1673ffffffffffffffffffffffffffffffffffffffff1681526020019081526020016000206000838152602001908152602001600020600001541461062957818061062590611502565b9250505b808061063490611502565b9150506105b5565b5060008167ffffffffffffffff81111561065957610658610cf0565b5b60405190808252806020026020018201604052801561069257816020015b61067f610c71565b8152602001906001900390816106775790505b5090506000805b6103e8811015610835576000600160003373ffffffffffffffffffffffffffffffffffffffff1673ffffffffffffffffffffffffffffffffffffffff1681526020019081526020016000206000838152602001908152602001600020600001541461082257600160003373ffffffffffffffffffffffffffffffffffffffff1673ffffffffffffffffffffffffffffffffffffffff16815260200190815260200160002060008281526020019081526020016000206040518060400160405290816000820154815260200160018201805461077390611224565b80601f016020809104026020016040519081016040528092919081815260200182805461079f90611224565b80156107ec5780601f106107c1576101008083540402835291602001916107ec565b820191906000526020600020905b8154815290600101906020018083116107cf57829003601f168201915b5050505050815250508383815181106108085761080761154a565b5b6020026020010181905250818061081e90611502565b9250505b808061082d90611502565b915050610699565b5081935050505090565b600360003373ffffffffffffffffffffffffffffffffffffffff1673ffffffffffffffffffffffffffffffffffffffff16815260200190815260200160002060009054906101000a900460ff166108cb576040517f08c379a00000000000000000000000000000000000000000000000000000000081526004016108c2906115c5565b60405180910390fd5b600360008373ffffffffffffffffffffffffffffffffffffffff1673ffffffffffffffffffffffffffffffffffffffff16815260200190815260200160002060009054906101000a900460ff16610957576040517f08c379a000000000000000000000000000000000000000000000000000000000815260040161094e90611631565b60405180910390fd5b6000600160003373ffffffffffffffffffffffffffffffffffffffff1673ffffffffffffffffffffffffffffffffffffffff168152602001908152602001600020600083815260200190815260200160002060000154036109ed576040517f08c379a00000000000000000000000000000000000000000000000000000000081526004016109e49061169d565b60405180910390fd5b3373ffffffffffffffffffffffffffffffffffffffff166002600083815260200190815260200160002060009054906101000a900473ffffffffffffffffffffffffffffffffffffffff1673ffffffffffffffffffffffffffffffffffffffff1614610a8e576040517f08c379a0000000000000000000000000000000000000000000000000000000008152600401610a8590611709565b60405180910390fd5b600160003373ffffffffffffffffffffffffffffffffffffffff1673ffffffffffffffffffffffffffffffffffffffff1681526020019081526020016000206000828152602001908152602001600020600160008473ffffffffffffffffffffffffffffffffffffffff1673ffffffffffffffffffffffffffffffffffffffff16815260200190815260200160002060008381526020019081526020016000206000820154816000015560018201816001019081610b4c919061173f565b5090505060405180604001604052806000815260200160405180602001604052806000815250815250600160003373ffffffffffffffffffffffffffffffffffffffff1673ffffffffffffffffffffffffffffffffffffffff1681526020019081526020016000206000838152602001908152602001600020600082015181600001556020820151816001019081610be49190611401565b50905050816002600083815260200190815260200160002060006101000a81548173ffffffffffffffffffffffffffffffffffffffff021916908373ffffffffffffffffffffffffffffffffffffffff1602179055505050565b60026020528060005260406000206000915054906101000a900473ffffffffffffffffffffffffffffffffffffffff1681565b604051806040016040528060008152602001606081525090565b6000604051905090565b600080fd5b600080fd5b6000819050919050565b610cb281610c9f565b8114610cbd57600080fd5b50565b600081359050610ccf81610ca9565b92915050565b600080fd5b600080fd5b6000601f19601f8301169050919050565b7f4e487b7100000000000000000000000000000000000000000000000000000000600052604160045260246000fd5b610d2882610cdf565b810181811067ffffffffffffffff82111715610d4757610d46610cf0565b5b80604052505050565b6000610d5a610c8b565b9050610d668282610d1f565b919050565b600067ffffffffffffffff821115610d8657610d85610cf0565b5b610d8f82610cdf565b9050602081019050919050565b82818337600083830152505050565b6000610dbe610db984610d6b565b610d50565b905082815260208101848484011115610dda57610dd9610cda565b5b610de5848285610d9c565b509392505050565b600082601f830112610e0257610e01610cd5565b5b8135610e12848260208601610dab565b91505092915050565b60008060408385031215610e3257610e31610c95565b5b6000610e4085828601610cc0565b925050602083013567ffffffffffffffff811115610e6157610e60610c9a565b5b610e6d85828601610ded565b9150509250929050565b600060208284031215610e8d57610e8c610c95565b5b6000610e9b84828501610cc0565b91505092915050565b600073ffffffffffffffffffffffffffffffffffffffff82169050919050565b6000610ecf82610ea4565b9050919050565b610edf81610ec4565b82525050565b6000602082019050610efa6000830184610ed6565b92915050565b610f0981610c9f565b82525050565b6000602082019050610f246000830184610f00565b92915050565b610f3381610ec4565b8114610f3e57600080fd5b50565b600081359050610f5081610f2a565b92915050565b60008060408385031215610f6d57610f6c610c95565b5b6000610f7b85828601610f41565b9250506020610f8c85828601610cc0565b9150509250929050565b600081519050919050565b600082825260208201905092915050565b60005b83811015610fd0578082015181840152602081019050610fb5565b60008484015250505050565b6000610fe782610f96565b610ff18185610fa1565b9350611001818560208601610fb2565b61100a81610cdf565b840191505092915050565b600060408201905061102a6000830185610f00565b818103602083015261103c8184610fdc565b90509392505050565b60008115159050919050565b61105a81611045565b82525050565b60006020820190506110756000830184611051565b92915050565b600081519050919050565b600082825260208201905092915050565b6000819050602082019050919050565b6110b081610c9f565b82525050565b600082825260208201905092915050565b60006110d282610f96565b6110dc81856110b6565b93506110ec818560208601610fb2565b6110f581610cdf565b840191505092915050565b600060408301600083015161111860008601826110a7565b506020830151848203602086015261113082826110c7565b9150508091505092915050565b60006111498383611100565b905092915050565b6000602082019050919050565b60006111698261107b565b6111738185611086565b93508360208202850161118585611097565b8060005b858110156111c157848403895281516111a2858261113d565b94506111ad83611151565b925060208a01995050600181019050611189565b50829750879550505050505092915050565b600060208201905081810360008301526111ed818461115e565b905092915050565b7f4e487b7100000000000000000000000000000000000000000000000000000000600052602260045260246000fd5b6000600282049050600182168061123c57607f821691505b60208210810361124f5761124e6111f5565b5b50919050565b60008190508160005260206000209050919050565b60006020601f8301049050919050565b600082821b905092915050565b6000600883026112b77fffffffffffffffffffffffffffffffffffffffffffffffffffffffffffffffff8261127a565b6112c1868361127a565b95508019841693508086168417925050509392505050565b6000819050919050565b60006112fe6112f96112f484610c9f565b6112d9565b610c9f565b9050919050565b6000819050919050565b611318836112e3565b61132c61132482611305565b848454611287565b825550505050565b600090565b611341611334565b61134c81848461130f565b505050565b5b8181101561137057611365600082611339565b600181019050611352565b5050565b601f8211156113b55761138681611255565b61138f8461126a565b8101602085101561139e578190505b6113b26113aa8561126a565b830182611351565b50505b505050565b600082821c905092915050565b60006113d8600019846008026113ba565b1980831691505092915050565b60006113f183836113c7565b9150826002028217905092915050565b61140a82610f96565b67ffffffffffffffff81111561142357611422610cf0565b5b61142d8254611224565b611438828285611374565b600060209050601f83116001811461146b5760008415611459578287015190505b61146385826113e5565b8655506114cb565b601f19841661147986611255565b60005b828110156114a15784890151825560018201915060208501945060208101905061147c565b868310156114be57848901516114ba601f8916826113c7565b8355505b6001600288020188555050505b505050505050565b7f4e487b7100000000000000000000000000000000000000000000000000000000600052601160045260246000fd5b600061150d82610c9f565b91507fffffffffffffffffffffffffffffffffffffffffffffffffffffffffffffffff820361153f5761153e6114d3565b5b600182019050919050565b7f4e487b7100000000000000000000000000000000000000000000000000000000600052603260045260246000fd5b7f53656c6c6572206973206e6f7420612072656769737465726564207573657200600082015250565b60006115af601f83610fa1565b91506115ba82611579565b602082019050919050565b600060208201905081810360008301526115de816115a2565b9050919050565b7f4275796572206973206e6f742061207265676973746572656420757365720000600082015250565b600061161b601e83610fa1565b9150611626826115e5565b602082019050919050565b6000602082019050818103600083015261164a8161160e565b9050919050565b7f4f626a65637420646f6573206e6f742065786973740000000000000000000000600082015250565b6000611687601583610fa1565b915061169282611651565b602082019050919050565b600060208201905081810360008301526116b68161167a565b9050919050565b7f53656e64657220646f6573206e6f74206f776e20746865206f626a6563740000600082015250565b60006116f3601e83610fa1565b91506116fe826116bd565b602082019050919050565b60006020820190508181036000830152611722816116e6565b9050919050565b60008154905061173881611224565b9050919050565b81810361174d575050611825565b61175682611729565b67ffffffffffffffff81111561176f5761176e610cf0565b5b6117798254611224565b611784828285611374565b6000601f8311600181146117b357600084156117a1578287015490505b6117ab85826113e5565b86555061181e565b601f1984166117c187611255565b96506117cc86611255565b60005b828110156117f4578489015482556001820191506001850194506020810190506117cf565b86831015611811578489015461180d601f8916826113c7565b8355505b6001600288020188555050505b5050505050505b56fea26469706673582212200da035d9783eb56dd89f48edf57834b03552543d37e5205bc305efe5917f128664736f6c63430008100033",
  "immutableReferences": {},
  "source": "// SPDX-License-Identifier: MIT\r\n\r\npragma solidity ^0.8.16;\r\n\r\ncontract jaAssure {\r\n    uint256 constant MAX_OBJECTS = 1000;\r\n    uint256 public totalCount;\r\n    mapping(address => mapping(uint256 => Object)) public objectOwners;\r\n    mapping(uint256 => address) public objectOwnerAddresses; // new mapping\r\n    \r\n    struct ContractProperties{\r\n        address CryptoMarketOwner;\r\n        address[] registeredUserAdderss;\r\n    }\r\n    \r\n    struct Object {\r\n        uint256 objectId;\r\n        string objectData;\r\n    }\r\n\r\n    mapping (address => bool) hasRegistered;\r\n    ContractProperties contractProperties;\r\n\r\n    function cryptomarket() public {\r\n        contractProperties.CryptoMarketOwner = msg.sender;\r\n    }\r\n\r\n    function checkUserRegistration() public view returns(bool) {\r\n        return hasRegistered[msg.sender];\r\n    }\r\n\r\n    function registerUser() public {\r\n        if (!hasRegistered[msg.sender]) {\r\n            hasRegistered[msg.sender] = true;\r\n            contractProperties.registeredUserAdderss.push(msg.sender);\r\n        }\r\n    }\r\n\r\n    function registerObject(uint256 _objectId, string memory _objectData) public {\r\n        // Create a new Object struct\r\n        Object memory newObject = Object(_objectId, _objectData);\r\n        \r\n        // Map the Object to the sender's address\r\n        objectOwners[msg.sender][_objectId] = newObject;\r\n        \r\n        // Map the object's owner to the sender's address\r\n        objectOwnerAddresses[_objectId] = msg.sender;\r\n\r\n        totalCount++ ; \r\n\r\n\r\n    }\r\n\r\n    function getObjectData() public view returns (Object[] memory) {\r\n        // Get the total number of objects registered to the sender's address\r\n        uint256 objectCount = 0;\r\n        for (uint256 i = 0; i < MAX_OBJECTS; i++) {\r\n            if (objectOwners[msg.sender][i].objectId != 0) {\r\n                objectCount++;\r\n            }\r\n        }\r\n        \r\n        // Create an array to hold the objects\r\n        Object[] memory objects = new Object[](objectCount);\r\n        \r\n        // Add each object to the array\r\n        uint256 index = 0;\r\n        for (uint256 i = 0; i < MAX_OBJECTS; i++) {\r\n            if (objectOwners[msg.sender][i].objectId != 0) {\r\n                objects[index] = objectOwners[msg.sender][i];\r\n                index++;\r\n            }\r\n        }\r\n        \r\n        // Return the array of objects\r\n        return objects;\r\n    }\r\n    \r\n    function transferObjectOwnership(address _newOwner, uint256 _objectId) public {\r\n        // Check that both the buyer and seller are registered users\r\n        require(hasRegistered[msg.sender], \"Seller is not a registered user\");\r\n        require(hasRegistered[_newOwner], \"Buyer is not a registered user\");\r\n\r\n        // Check that the object exists and is owned by the sender\r\n        require(objectOwners[msg.sender][_objectId].objectId != 0, \"Object does not exist\");\r\n        require(objectOwnerAddresses[_objectId] == msg.sender, \"Sender does not own the object\");\r\n\r\n        // Update the object's ownership in both mappings\r\n        objectOwners[_newOwner][_objectId] = objectOwners[msg.sender][_objectId];\r\n        objectOwners[msg.sender][_objectId] = Object(0, \"\");\r\n        objectOwnerAddresses[_objectId] = _newOwner;\r\n    }\r\n    \r\n    function getObjectOwner(uint256 _objectId) public view returns (address) {\r\n        return objectOwnerAddresses[_objectId];\r\n    }\r\n\r\n    function getTotalCount() public view returns (uint256) {\r\n        return totalCount;\r\n    }\r\n}\r\n",
  "sourcePath": "C:\\Users\\dvipa\\gemma-backend\\contracts\\Ja_Assure.sol",
  "compiler": {
    "name": "solc",
    "version": "0.8.16+commit.07a7930e.Emscripten.clang"
  },
  "schemaVersion": "3.4.13",
  "updatedAt": "2023-04-16T14:41:01.471Z",
  "devdoc": {
    "kind": "dev",
    "methods": {},
    "version": 1
  },
  "userdoc": {
    "kind": "user",
    "methods": {},
    "version": 1
  }
}